:020000040000FA
:06000000BAEF13F012003C
:0A0006000100142800002B0E00007A
:0400100007000000E5
:0C00140046EC05F0FB0EDBCFF3FFDB0633
:10002000F35000090AE094EC05F0FA0EFFEC05F03D
:10003000F3E1151CF1E1010E01D0000E75EF05F0A2
:1000400046EC05F03B0EE12402E3E168E652E16E86
:10005000010EDB6A020EDB6AF90EDBCFF6FFFA0E49
:10006000DBCFF7FFFB0EDBCFF8FF0800F550DF6EAC
:10007000DF5002E199EF04F0250EDF5C02E08CEF27
:1000800004F0030EDB6A040EDB6A050EDB6A060E63
:10009000DB6A070EDB6AAEEC04F02D0EDF5C0CE0D1
:1000A0002B0EDF5C09E0200EDF5C06E0230EDF5C38
:1000B00003E0300EDF5C1AE1DF50300A14E0130A6F
:1000C0000FE0030A0AE00B0A05E0060AE4E1030E6A
:1000D000DB80E1D7030EDB82DED7030EDB84DBD7C8
:1000E000030EDB86D8D7030EDB88D5D72A0EDF5C5C
:1000F0001BE1AAEC04F0F8EC04F010E0030EDB8046
:1001000008680968130EDBCF0DF0140EDBCF0EF07C
:10011000DEEC0CF0040E06C0DBFF03D0130EE1ECA6
:1001200004F0AEEC04F00BD0090EDB6A4FEC05F0E6
:1001300003E0C3EC05F0FAD7090EE1EC04F0030E7E
:10014000DBB0DB982E0EDF5C1BE1AEEC04F02A0E78
:10015000DF5C0BE1AAEC04F0F8EC04F003E1130E11
:1001600033EC05F0AEEC04F00BD0090EDB6A4FEC7B
:1001700005F003E0C3EC05F0FAD7090E33EC05F007
:10018000680EDF5C07E1AEEC04F0680EDF5C1DE199
:10019000030E18D0740EDF5C17E07A0EDF5C14E0FB
:1001A000480EDF5C06E0540EDF5C03E05A0EDF5CB5
:1001B00002E1020E07D06C0EDF5C03E06A0EDF5C2A
:1001C00004E1010E86EC05F0C9DBDF506E0A01E1A7
:1001D0007FD31E0A01E192D1200A01E18FD13F0AAB
:1001E00001E149D11A0A01E146D10D0A01E143D1E9
:1001F000200A01E140D13A0A01E13DD1200A01E1A2
:100200003AD1260A01E135D10D0A01E132D11A0AAB
:1002100001E1D9D0200A4AE0300A1FE0460A0EE088
:10022000250A01E083D3D950F90FE96EFF0EDA20D9
:10023000EA6E010EEE5E000EEE5AEE5A94EC05F0F8
:10024000250EE66E95DB03E1151C01E169D390EC08
:1002500005F001E26BD3DB2A69D3080EDB6A040EDA
:10026000DB50010806E2040EDB0458EC05F0DB501D
:100270008BDB080EDB5009E0030EDB50010B05E1C0
:1002800072DB01E04DD3080EDB6A64DBEFCFDFFFEA
:1002900008EC06F003E1151C01E142D390EC05F0F7
:1002A00001E3DB2A60DB01E141D33AD3070EDB50E7
:1002B00002080FE1D4EC05F0030E9BEC05F00E0EE6
:1002C000EECFDBFF0F0EEECFDBFF100EEECFDBFF2E
:1002D00020D0F70EDBCF17F0F80EDBCF18F0020EB0
:1002E000175E000E185AF70E17C0DBFFF80E18C085
:1002F000DBFF17C0E9FF18C0EAFF8BEC05F0166AB8
:100300000E0E14C0DBFF0F0E15C0DBFF100E16C063
:10031000DBFF0E0EDBCFE6FF0F0EDBCFE6FF100E8E
:10032000DBCFE6FF81EC12F0E552E552E552130E09
:1003300007C0DBFF140E08C0DBFF060EDB5005E034
:10034000130ECFEC05F001E26ADBF3EC05F002E2FC
:10035000130E37DBB6EC05F006E0040ECFEC05F02B
:1003600002E2050E2EDB030EDBB005D0FCDA01E065
:10037000D7D2080EDB6A090EDB6A0E0EDBCFF6FF62
:100380000F0EDBCFF7FF100EDBCFF8FF0800F550A4
:10039000DF6EDF5014E0F9EC05F011E208EC06F036
:1003A00003E1151C01E1BCD2BBDB01E3DB2A090E32
:1003B000DB2AD9500E0FE96E000ECBDBE7D7D3DA7C
:1003C00001E1B4D2ADD2C6DA110EEECFDBFF120ED0
:1003D000EDCFDBFF110EDBCFE6FF120EDBCFE6FF2A
:1003E00073EC12F0E552E552130EF3CFDBFF140E5F
:1003F000F4CFDBFF060EDB5004E0130ED0DB01E28E
:100400000EDBF3EC05F002E2130EDBDAAFDB05E006
:10041000040EC5DB02E2050ED4DA030EDBB005D014
:10042000A2DA01E07DD2080EDB6A090EDB6A110E4A
:10043000DBCFE9FF120EDBCFEAFFEFCFDFFFDF50AC
:1004400014E0D7DB12E2E4DB03E1151C01E168D222
:1004500067DB01E3DB2A090EDB2A110EDB2ADBCF87
:10046000E9FF120EE8E3DB2AE6D77DDA01E15ED28E
:1004700057D2030EDB8E070EDB0410E195DB040E72
:100480005ADB0A0EEECFDBFF0B0EEECFDBFF0C0EBE
:10049000EECFDBFF0D0EEECFDBFF6CD0070EDB5097
:1004A00003082CE1030EDBAE0DD0B2DA020E76DAD1
:1004B000EFCF14F0156A166A176A14AE39D01568B2
:1004C000166835D0F70EDBCF15F0F80EDBCF16F03F
:1004D000020E155E000E165AF70E15C0DBFFF80E61
:1004E00016C0DBFF15C0E9FF16C0EAFFEFCF14F01E
:1004F0000A0E14C0DBFF0B0EDB6A38D0070EDB5090
:10050000020809E1030EDBAE04D059DB16AE10D0B1
:100510000ED055DB0DD0030EDBAE12D079DA020E11
:100520003DDAF9DA166A176A15AE02D0166817684E
:10053000E2DA0C0E16C0DBFF0D0E17C0DBFF1AD07F
:10054000F70EDBCF16F0F80EDBCF17F0020E165EBB
:10055000000E175AF70E16C0DBFFF80E17C0DBFFB0
:1005600016C0E9FF17C0EAFFD6DAC5DA0C0EDB6A5F
:100570000D0EDB6A060EDB5005E1010EF36E050E73
:10058000F3CFDBFF150EDB6A160EDB6AD950370F8F
:10059000146E000EDA20156E390E14C0DBFF3A0E11
:1005A00015C0DBFF380EDB6A080EDB6A0A0EAEDA16
:1005B000DF50780A12E0200A10E0280A0CE0200A36
:1005C0000AE03F0A06E00D0A02E0200A08E1020EF6
:1005D00005D0080E03D0080EDF26100E97DA030EA2
:1005E000DBBE02D0DB92DB94DB50800B24E08ADAA6
:1005F000D890030EEB50000A08E6000EEE5C000EE9
:10060000EE58000EEE58000EEE5815E213DA0B68A5
:100610000C680D680E683BEC12F00A0E02C0DBFF9E
:100620000B0E03C0DBFF0C0E04C0DBFF0D0E05C07C
:10063000DBFF2D0E08D0030EDBA202D02B0E03D061
:10064000DBA408D0200EF36E170EF3CFDBFF150EE0
:10065000DB2A02D0170EDB6A050EDB5003E1B7D9A7
:1006600001E189D0E20E146E270E156E000E166E93
:10067000070EDBCF17F0186A196A1A6A17C00BF059
:1006800018C00CF019C00DF01AC00EF0D3D908EC48
:1006900013F014500224F36E15500320F46E16501C
:1006A0000420F86EF4CFF7FFF3CFF6FF0800090E31
:1006B000F5CFDBFF580EDF5C0FE1610EF36E090E24
:1006C0007BD90AE3200E146E090EDBCFE7FF14502E
:1006D000E75E090EE7CFDBFF070EDBCF14F0156AEC
:1006E000166A176A0FDA14C00BF015C00CF016C0AA
:1006F0000DF017C00EF0EECF06F0EECF07F0EECF04
:1007000008F0EFCF09F008EC13F009C0EDFF08C0C6
:10071000EDFF07C0EDFF06C0EFFF390EDBCFE9FFAD
:10072000DB063A0EDBCFEAFF01E2DB06090EDBCF88
:10073000EFFF150EDB2A4BD995E1030EDBA61DD08A
:100740006F0EDF5C06E1C1D918E3150EDB285BDA1A
:1007500014D0780EDF5C09E0580EDF5C06E0620E14
:10076000DF5C03E0420EDF5C08E1020EF36E160E62
:10077000F3CFDBFF02D0150EDB6A030EDB50100B4C
:100780000EE0040EDBCF14F0050EDB50D8801454BD
:1007900006E2060EDB5003E1040EDB5034DA95D995
:1007A0000AE2050EDBCFE7FF150EDB50E75E050E14
:1007B000E7CFDBFF02D0050EDB6A040EDBCF14F0BF
:1007C000160E45D9D880145414E2160EDBCFE6FF7E
:1007D000150EDBCFE6FF040EDBCFE6FF050EDB5088
:1007E000E552E75CE552D880E754E552D880E754FB
:1007F0005FD9030EDB50010B0BE1080EDB5008E064
:10080000B2D801E08DD0080EDB50BED8080EDB6AEE
:10081000170EDB5007E088D9170EF1D903E1151C3C
:1008200001E17ED0160EDB5016E07ED9300EE66E6A
:100830009FD802E1151C74E077D9DFCFE6FF87EC83
:1008400011F0E552E552E552F4CF15F00001F31C2A
:1008500002E1151C65E0050EDBCF14F0160EDB502F
:10086000D880145409E2050EDBCFE7FF160EDB50EB
:10087000E75E050EE7CFDBFF300EE66E050ECBD947
:100880004FE1390EDB2ADBCFE9FF3A0E01E3DB2A29
:10089000DBCFEAFF090EEFCFDBFFDB500EE044D9E0
:1008A000090EADD902E1151C3BE0390EDB2ADBCF86
:1008B000E9FF3A0EEDE3DB2AEBD755D831E1160E0E
:1008C000DBCFE6FF080EC3D8E552E7245DD82ED073
:1008D000070EDB50030A1CE0010A14E0030A07E0DC
:1008E0007BD9DBCFEEFF020EDBCFEDFF1FD0F5D8BB
:1008F000196A17AE02D0186819682CD8BCD819C06C
:10090000EEFF14D0EAD817BE186824D8B4D80ED099
:1009100063D9DBCFEFFF0AD07BD905E1151C03E1DA
:10092000F368F46810D0FCD801E3DB2A79D935EFFD
:1009300000F0010EDBCF14F0020EDBCF15F014C077
:10094000F3FF15C0F4FF3B0EE15C02E2E16AE55201
:10095000E16ECBD029D9020E9BEF05F061D90800DA
:10096000F550DF6E1200200EE66E080E0BEF06F05B
:1009700087EC11F0E552E552E552F3CF14F0F4CFD5
:1009800015F00001F31C1200146E156AD950010F06
:100990004DD91450EE261550ED221200185E000EAF
:1009A000195AF70E18C0DBFFF80E19C0DBFF18C08C
:1009B000E9FF19C0EAFF1200DBCFF4FFF350F45C4B
:1009C0001200DB50E76E040EE7CFDBFF12000A0EC9
:1009D000DBCF14F00B0EDBCF15F00C0EDBCF16F0D7
:1009E0000D0EDBCF17F01450151016101710120053
:1009F000130EEECFDBFF140EEDCFDBFF130EDBCFBC
:100A000014F0140EDBCF15F00001800E1514120047
:100A1000F70EDBCF18F0F80EDBCF19F01200050E41
:100A2000DB50E66ED950130F01D9E552E750EE6E58
:100A3000ED6A12000A0EDBCF06F00B0EDBCF07F0DB
:100A40000C0EDBCF08F00D0EDBCF09F01200DBCF70
:100A5000E6FF150EDBCFE6FF050EDB50E552E7247F
:100A6000E552E7241200DB50CED8010EF36E060EDD
:100A7000F3CFDBFF1200EE50EFCFEAFFE96E16C0B6
:100A8000EEFF17C0EEFF18C0EEFF1200D9CFE6FF51
:100A9000DACFE6FFE1CFD9FFE2CFDAFF1200DFCFF6
:100AA000E6FFE66A98EC13F0E552E552F3501200C7
:100AB000E76E080EE7CFDBFF1200EECF14F0EECFAB
:100AC00015F0EFCF16F0176A1200050EDBCF14F009
:100AD000150EDB50D88014541200010EDBCF16F037
:100AE000020EDBCF17F0186A1200E552E5CFDAFFED
:100AF000E7CFD9FF12000A0E14C0DBFF0B0E15C0A2
:100B0000DBFF1200D9500A0F16EF06F0F36E070E46
:100B1000F3CFDBFF1200EECF14F0EFCF15F0120091
:100B2000010EDB2A020E1200FC0EDBCFE6FFFD0EEB
:100B3000DBCFE6FF1200145E000E155AF70E14C04C
:100B4000DBFFF80E15C0DBFF14C0E9FF15C0EAFF9C
:100B50001200DA20EA6EEF2AEECFF6FF000EEF2247
:100B6000EECFF7FFEF22EECFF8FF1200040EDBCF3F
:100B7000E6FF130EDB50E552E75C9ADFDB5004DF43
:100B8000060EDB501200090EDB500A0DF350DF2475
:100B9000D00FE76E090EE7CFDBFFAEEF04F0DB50BE
:100BA000F36E050EDCEF04F0F70EDBCF14F0F80E59
:100BB000DBCF15F01200DFCFE6FFB8EF04F028DF3F
:100BC000030EECDE5DEF05F00AEC00F0E552E552B5
:100BD000E552E55200091200BDDEEE50EFCFEAFF0C
:100BE000E96E010E1200130EDB50F36E040EDCEF03
:100BF00004F0040EDB50F36E090EDCEF04F0DBCFE3
:100C0000E6FFB8EF04F0E76E050EE7CFDBFF12005A
:100C10008BDFDBEF05F0DBCFE6FF86DFE4EF05F0EF
:100C2000D950F90FE96EFF0EA9EF05F0E96E000E3D
:060C3000DA20EA6E12005A
:0A0C3600600ED36E936A8A6A92681A
:100C4000800EE66E080EE66E66EC13F0E552E55295
:100C5000090EC86EC580C5A003D0FDD7C5B0FED7AC
:100C6000120EE66E02EC12F0E5520009F9E16F0E89
:100C7000E66E02EC12F0E5520009F9E16E0EE66E46
:100C800002EC12F0E5520009F9E1E66A02EC12F01A
:100C9000E5520009FAE1E66A02EC12F0E5520009B9
:100CA000FAE1E66A02EC12F0E5520009FAE1C584C5
:100CB000C5B4FED70F010F0E5D6F5C6BECEC0DF051
:100CC000C0EC0DF0E66A870EE66E6F0EE66ED8ECAD
:100CD00012F0E552E552E5520C0EE66EE66A2C0E75
:100CE000E66EC9EC11F0E552E552E5529484CB680A
:100CF0000F01800E516F0F0E506F060EE66E4BEC1B
:100D000013F0E552BB0E146E200E156E166A14C059
:100D1000E6FFE66E16C0E6FFA6EC12F0E552E552DD
:100D2000E5529F0E146E200E156E166A14C0E6FF73
:100D3000E66E16C0E6FFA6EC12F0E552E552E5526B
:100D40009EAAFED72CEC13F00E01026FE850540A55
:100D500029E0200A27E0270A22E0200A20E03C0AB6
:100D60001BE0200A19E0210A14E0200A12E02A0AF6
:100D70000EE0200A0CE0260A08E0200A06E02E0A0F
:100D800002E0200A12E121D8CCD779D8CAD778D985
:100D9000C8D7CEEC0AF0C5D7DFEC0AF0C2D7F0EC2A
:100DA0000AF0BFD76EEC0BF0BCD76A0E146E1F0EA4
:100DB000156E166A14C0E6FFE66E16C0E6FFA6ECD6
:100DC00012F0E552E552E552ACD706EC14F001EC16
:100DD00014F00009FCE1C4CF03FE03CE09F00DECD2
:100DE0000CF007C01CF008C01DF009C01EF00AC0BE
:100DF0001FF00C6A0D6AA00E0E6E400E0F6E71ECA5
:100E00000CF007C018F008C019F009C01AF00AC0A9
:100E10001BF0F70E0C6ECC0E0D6E120E0E6E3B0E0E
:100E20000F6E1EEC0CF007C014F008C015F009C0DE
:100E300016F00AC017F00C6A0D6A800E0E6E430E93
:100E40000F6E1EEC0CF00BEC0DF008C004FE09C098
:100E500005FE08C0E6FF09C0E6FF600E146E1F0E17
:100E6000156E166A14C0E6FFE66E16C0E6FFFE0EAB
:100E7000E66EE66839EC11F0070EE15E1200300E06
:100E8000146E1F0E156E166A14C0E6FFE66E16C0CD
:100E9000E6FFA6EC12F0E552E552E5529EAAFED717
:100EA0002CEC13F00E01026FE850E66EE66A2A0E93
:100EB000146E1F0E156E166A14C0E6FFE66E16C09D
:100EC000E6FFFE0EE66EE66839EC11F0176E070ECF
:100ED000E15E17500E010251420A10E0200A0EE0B6
:100EE000250A09E0200A07E0350A02E0200A09E1A4
:100EF0000E012E6B06D00E01010E02D00E01020E65
:100F00002E6F0E01006B016B030E01AF02D0D89063
:100F100003D0005D000E01590CE2060E0025E96EBB
:100F20000E0E0121EA6E300EEF6E002B000E012333
:100F3000EBD70A6B020E146E1F0E156E166A14C0E4
:100F4000E6FFE66E16C0E6FFA6EC12F0E552E552AB
:100F5000E5520E01006B016B030E01AF02D0D89079
:100F600003D0005D000E015918E29EAAFED72CECBA
:100F700013F00E01026F060E0025E96E0E0E012120
:100F8000EA6E02CEEFFF02CEE6FF81EC13F0E552EF
:100F90000E01002B000E0123DFD7FE0E146E1E0E75
:100FA000156E166A14C0E6FFE66E16C0E6FFA6ECE4
:100FB00012F0E552E552E552060EE66E0E0EE66EB2
:100FC00075EC10F0E552E552F3CF2FFEE8EF07F095
:100FD0000E012E51EA6A2B0FE96E0E0EEA222FCE79
:100FE000EFFF2E29146E030E156E0E6E14C009F05D
:100FF000D6EC13F00550EA6A2B0FE96E0E0EEA22CA
:10100000EF6A020E0E012E25146E030E156E0E6E83
:1010100014C009F0D6EC13F00550EA6A2B0FE96E04
:101020000E0EEA22EF6AC580C5A003D0FDD7C5B079
:10103000FED7120EE66E02EC12F0E5520009F9E15D
:101040006E0EE66E02EC12F0E5520009F9E12BCECD
:10105000E6FF02EC12F0E5520009F9E12CCEE6FFC2
:1010600002EC12F0E5520009F9E12DCEE6FF02ECA8
:1010700012F0E5520009F9E1C584C5B4FED71200AB
:10108000D70E146E1E0E156E166A14C0E6FFE66EBD
:1010900016C0E6FFA6EC12F0E552E552E5520E014D
:1010A000006B016B020E01AF02D0D89003D0005D3F
:1010B000000E015918E29EAAFED72CEC13F00E0187
:1010C000026F0A0E0025E96E0E0E0121EA6E02CEB5
:1010D000EFFF02CEE6FF81EC13F0E5520E01002B8C
:1010E000000E0123DFD7FE0E146E1E0E156E166A5B
:1010F00014C0E6FFE66E16C0E6FFA6EC12F0E5525D
:10110000E552E5520E010D6B006B016B020E01AF53
:1011100002D0D89003D0005D000E015901E316D231
:101120000A0E0025E96E0E0E0121EA6EEF50460A06
:1011300001E1EBD1200A01E1E8D1230A01E1C9D1A3
:10114000200A01E1C6D1210A01E1A7D1200A01E16B
:10115000A4D1270A01E185D1200A01E182D1210A27
:1011600001E163D1200A01E160D1230A01E140D10C
:10117000200A01E13DD1580A01E11DD1010A01E136
:10118000FDD00F0A01E1DDD0010A01E1BDD0030A63
:1011900001E19DD0010A01E17DD0070A5EE0010A6C
:1011A0003FE0030A20E0010A01E0CCD100CE14F0B8
:1011B00001CE15F0010ED8801456000E1556040EFF
:1011C000086E096A14C00DF015C00EF0DEEC0CF0CC
:1011D0000650166E000E065201E1B2D1E846FE0B33
:1011E0001606FCE1ADD100CE14F001CE15F0010ED3
:1011F000D8801456000E1556040E086E096A14C0E5
:101200000DF015C00EF0DEEC0CF00650166E010E5F
:10121000065201E195D1E846FE0B1606FCE190D19D
:1012200000CE14F001CE15F0010ED8801456000E39
:101230001556040E086E096A14C00DF015C00EF0A4
:10124000DEEC0CF00650166E020E065201E178D16B
:10125000E846FE0B1606FCE173D100CE14F001CE79
:1012600015F0010ED8801456000E1556040E086EA7
:10127000096A14C00DF015C00EF0DEEC0CF006503B
:10128000166E030E065201E15BD1E846FE0B160610
:10129000FCE156D100CE14F001CE15F0010ED8803D
:1012A0001456000E1556040E086E096A14C00DF08F
:1012B00015C00EF0DEEC0CF00650166E040E065251
:1012C00001E13ED1E846FE0B1606FCE139D100CE25
:1012D00014F001CE15F0010ED8801456000E1556EC
:1012E000040E086E096A14C00DF015C00EF0DEEC95
:1012F0000CF00650166E050E065201E121D1E846AB
:10130000FE0B1606FCE11CD100CE14F001CE15F048
:10131000010ED8801456000E1556040E086E096A88
:1013200014C00DF015C00EF0DEEC0CF00650166E79
:10133000060E065201E104D1E846FE0B1606FCE15A
:10134000FFD000CE14F001CE15F0010ED880145657
:10135000000E1556040E086E096A14C00DF015C073
:101360000EF0DEEC0CF00650166E070E065201E190
:10137000E7D0E846FE0B1606FCE1E2D000CE14F002
:1013800001CE15F0010ED8801456000E1556040E2D
:10139000086E096A14C00DF015C00EF0DEEC0CF0FA
:1013A0000650166E080E065201E1CAD0E846FE0B42
:1013B0001606FCE1C5D000CE14F001CE15F0010EEA
:1013C000D8801456000E1556040E086E096A14C013
:1013D0000DF015C00EF0DEEC0CF00650166E090E86
:1013E000065201E1ADD0E846FE0B1606FCE1A8D09E
:1013F00000CE14F001CE15F0010ED8801456000E68
:101400001556040E086E096A14C00DF015C00EF0D2
:10141000DEEC0CF00650166E0A0E065201E190D07A
:10142000E846FE0B1606FCE18BD000CE14F001CE90
:1014300015F0010ED8801456000E1556040E086ED5
:10144000096A14C00DF015C00EF0DEEC0CF0065069
:10145000166E0B0E065274E0E846FE0B1606FCE113
:101460006FD000CE14F001CE15F0010ED8801456C6
:10147000000E1556040E086E096A14C00DF015C052
:101480000EF0DEEC0CF00650166E0C0E065258E014
:10149000E846FE0B1606FCE153D000CE14F001CE58
:1014A00015F0010ED8801456000E1556040E086E65
:1014B000096A14C00DF015C00EF0DEEC0CF00650F9
:1014C000166E0D0E06523CE0E846FE0B1606FCE1D9
:1014D00037D000CE14F001CE15F0010ED88014568E
:1014E000000E1556040E086E096A14C00DF015C0E2
:1014F0000EF0DEEC0CF00650166E0E0E065220E0DA
:10150000E846FE0B1606FCE11BD000CE14F001CE1F
:1015100015F0010ED8801456000E1556040E086EF4
:10152000096A14C00DF015C00EF0DEEC0CF0065088
:10153000166E0F0E065204E0E846FE0B1606FCE19E
:101540000E010D13002B000E0123E0D50DCE8AFFF6
:101550000BCE14F0156A14BE156814C0E6FF15C052
:10156000E6FF0ACE16F0176A16BE176816C0E6FF29
:1015700017C0E6FFC00E186E1E0E196E1A6A18C04C
:10158000E6FFE66E1AC0E6FFFE0EE66EE66839EC90
:1015900011F01B6E090EE15E1B5012009494B50E03
:1015A000146E1E0E156E166A14C0E6FFE66E16C0A7
:1015B000E6FFA6EC12F0E552E552E55212009484E3
:1015C000A90E146E1E0E156E166A14C0E6FFE66EA6
:1015D00016C0E6FFA6EC12F0E552E552E552120005
:1015E0000E01006B016B100E01AF02D0D89003D03A
:1015F000005D000E01590CE20E0E0025E96E0E0E84
:101600000121EA6E200EEF6E002B000E0123EBD7B6
:101610001E6B840E146E1E0E156E166A14C0E6FF45
:10162000E66E16C0E6FFA6EC12F0E552E552E55272
:101630000E01006B016B100E01AF02D0D89003D0E9
:10164000005D000E01591BE29EAAFED72CEC13F0A0
:101650000E01026F0D0E025D12E00E0E0025E96E06
:101660000E0E0121EA6E02CEEFFF02CEE6FF81EC04
:1016700013F0E5520E01002B000E0123DCD7E4EC41
:101680000DF00E01006B016B100E01AF02D0D8906F
:1016900003D0005D000E015911E20E0E0025E96E27
:1016A0000E0E0121EA6EEF500001226F236BE0EC79
:1016B0000DF00E01002B000E0123E6D7FE0E146E76
:1016C0001E0E156E166A14C0E6FFE66E16C0E6FF23
:1016D000A6EC12F0E552E552E55212001BD8F80EC6
:1016E000E66EE66A1FCEE6FF20CEE6FF6E0E146EB3
:1016F0001E0E156E166A14C0E6FFE66E16C0E6FFF3
:10170000FE0EE66EE66839EC11F0176E090EE15E2A
:10171000175012000E01010E316FE80437E1C58049
:10172000C5A003D0FDD7C5B0FED79A0EE66E02EC79
:1017300012F0E5520009F9E131CEE6FF02EC12F0B9
:10174000E5520009F9E1FAEC13F0C582C5B2FED703
:10175000FAEC13F09B0EE66E02EC12F0E552000973
:10176000F9E1E4EC13F00E01306FC58AC588C5B805
:10177000FED7FAEC13F0C584C5B4FED7400E0E01B7
:10178000301502E0000EC8D7010EC6D7C580C5A02F
:1017900003D0FDD7C5B0FED79A0EE66E02EC12F06C
:1017A000E5520009F9E131CEE6FF02EC12F0E55214
:1017B0000009F9E1FAEC13F0C582C5B2FED7FAECE4
:1017C00013F09B0EE66E02EC12F0E5520009F9E10F
:1017D000E4EC13F00E01306FC58AC588C5B8FED79A
:1017E000FAEC13F0C584C5B4FED730CE1FFE0E014F
:1017F000206B1FBF20691200D9CFE6FFE1CFD9FFD0
:10180000FE0EDBCF22F00001236B22BF2369E8EC40
:0A1810000DF0E552E7CFD9FF1200FA
:06181A00019E05D0019EB5
:1018200009AE02D0096C018E09C003F0026A136A86
:10183000126A860E046E056A56EF0DF0016A92EC8C
:101840000DF0AAEC0DF001B63AEF0DF001A205D0B3
:1018500001BA3AEF0DF041EF0DF001BA4DEF0DF086
:1018600001A005D001B83AEF0DF04DEF0DF001B831
:1018700041EF0DF0056A7F0E0A24046EE86A052226
:101880000F50045EE86A055A1A0E106E0A6A126A50
:10189000136A026A036A0C50075E0D50085A0E5014
:1018A000095A000E0A5A09E70C5007260D50082263
:1018B0000E500922000E0A2201D0128AD890073653
:1018C000083609360A36D8901236133602360336F1
:1018D000102EE1D7095008100710D8A4128A56EF2D
:1018E0000DF0016A92EC0DF0AAEC0DF001B63AEFA2
:1018F0000DF001A205D001B83AEF0DF041EF0DF067
:1019000001AA05D001B03AEF0DF041EF0DF001B0A2
:1019100002D001A802D04DEF0DF0056A0F500A2445
:10192000046EE86A05227E0E045EE86A055A126AB1
:10193000136A026A036A0E500902F4CF03F0F3CF70
:1019400002F00D500902F3501326F4500222000E4B
:1019500003220E500802F3501326F4500222000E08
:1019600003220C500902F3501226F4501322000EE9
:10197000022203220D500802F3501226F4501322C3
:10198000000E022203220E500702F3501226F450DA
:101990001322000E022203220C500802F4501226D9
:1019A000000E1322022203220D500702F4501226C9
:1019B000000E13220222032256EF0DF009C013F08D
:1019C00008C012F008500D02F4CF07F0F3CF06F074
:1019D00009500E02F4CF09F0F3CF08F00D02F350D6
:1019E0000726F4500822E86A092212500E02F3502A
:1019F0000726F4500822E86A09220EAE04EF0DF023
:101A00001250085E1350095A13AE000C0D50085EB8
:101A10000E50095A000C016A92EC0DF001B615EF58
:101A20000DF001A20ED001B405D07F0E096EFF0E9D
:101A3000086E1FD0800E096E086A1BD0096A086AFA
:101A400018D001B0FBD78F0E0A60EDD77E0E0A6466
:101A5000F5D78E0E0A5C05E0D890093208320A2AC2
:101A6000F8D701A406D0086C091EE86A092209AE5D
:101A7000E5D712007F0E0A6EFF0E096E086E076E24
:101A800012007F0E01BEFF0E0A6E02D07F0E0A6E9C
:101A9000800E096E086A076AF3D701AE04D0800E83
:101AA0000A6E096AF7D70A6A096AF4D70350021066
:101AB00013101210F8E005BEF0D703BE0CD004508E
:101AC0000510EBE0D89012361336023603360406C2
:101AD000D8A00506F2D70550D4E10428D2E012AE12
:101AE00011D07F0E121402E113A00CD0132AE86A61
:101AF0000222032207E3D880033202321332042A7F
:101B00000428BFE00450C9E013C007F002C008F089
:101B10000334096E04300A6E09320A9E01BE0A8E31
:101B200040EF0DF009360A3602E30184017E06E13A
:101B300001800A6A096A086A076A12000A2803E033
:101B4000D88009321200D890093202E101821200D5
:101B5000018612000E360F3602E3018C017E06E18B
:101B600001880F6A0E6A0D6A0C6A12000F2803E0E2
:101B7000D8800E321200D8900E32EAE1018A1200AB
:101B80000F0E246EE4EC0DF0200E226EE0EC0DF052
:101B9000242EC4EF0DF0DBEC0DF00F0E246EDCEC08
:101BA0000DF0200E226EE0EC0DF0242ED1EF0DF0A2
:101BB000DBEC0DF012001200C00E226E09D81200EC
:101BC000D6D8D88091D81200800E226E01D812008B
:101BD000CED8D89089D812008B8294928B82C8EC90
:101BE0000EF09490959A9598FF0E206EFF0E216E40
:101BF000C6D8202EFBD7200E226ED89055D8FF0EC7
:101C0000206EFF0E216EBBD8202EFBD7200E226E39
:101C1000D8904AD8FF0E216EB2D8800E226ED8908E
:101C200043D8FF0E216EABD8000E226ED8903CD860
:101C3000C00E226ED89038D8FF0E216EA0D8000EAC
:101C4000226ED89031D8100E226ED8902DD8FF0E6B
:101C5000216E95D81DEC0FF01DEC0FF01DEC0FF070
:101C60001DEC0FF0000E226ED8901ED8200E226EB2
:101C7000D8901AD8FF0E216E82D81DEC0FF01DEC03
:101C80000FF01DEC0FF01DEC0FF01DEC0FF01DEC34
:101C90000FF01DEC0FF04E0E226E69D8D88024D8BC
:101CA000FF0E216E6CD81200D8A08C98D8B08C880A
:101CB0008C9A9590959295949596000000008B8053
:101CC00022AE8C9622BE8C8622AC8C9422BC8C8454
:101CD00022AA8C9222BA8C8222A88C9022B88C8064
:101CE000000000008B901200DFDF223ADDDF223A95
:101CF00012009580958295849586D8A08C98D8B04E
:101D00008C888C8A000000008B800000000000009E
:101D100000008CA6239E8CB6238E8CA4239C8CB4AE
:101D2000238C8CA2239A8CB2238A8CA023988CB00B
:101D300023888B90000000000000000000000000DD
:101D4000000000008B80000000008CA623968CB65B
:101D500023868CA423948CB423848CA223928CB2EB
:101D600023828CA023908CB023808B90120030ECC7
:101D70000FF01200D890BDDF23BEF9D71200212E3C
:101D8000FED71200216A0000212EC3EF0EF01200D0
:101D9000C2EC0EF0C2EC0EF0C2EC0EF0C2EC0EF093
:101DA000C2EC0EF0C2EC0EF0C2EC0EF0C2EC0EF083
:101DB000C2EC0EF0C2EC0EF0C2EC0EF0C2EC0EF073
:101DC000C2EC0EF0C2EC0EF0C2EC0EF0C2EC0EF063
:101DD000C2EC0EF0C2EC0EF0C2EC0EF0C2EC0EF053
:101DE000C2EC0EF0C2EC0EF0C2EC0EF0C2EC0EF043
:101DF000C2EC0EF0C2EC0EF0C2EC0EF0C2EC0EF033
:101E0000C2EC0EF0C2EC0EF0C2EC0EF0C2EC0EF022
:101E1000C2EC0EF0C2EC0EF0C2EC0EF0C2EC0EF012
:101E2000C2EC0EF0C2EC0EF0C2EC0EF0C2EC0EF002
:101E3000C2EC0EF0C2EC0EF01200C2EC0EF0C2ECDE
:101E40000EF0C2EC0EF0C2EC0EF0C2EC0EF0C2ECE2
:101E50000EF0C2EC0EF0C2EC0EF0C2EC0EF012006E
:0E1E6000C2EC0EF0C2EC0EF0C2EC0EF012005E
:021E6E005465B9
:101E70006D70657261747572653A202564256343DF
:101E80000D0A0A00456E74657220737472696E677C
:101E90002028313620636861726163746572732033
:101EA0006D6178293A0D0A0A004E6F7465206F66DD
:101EB000660D0A0A004E6F7465206F6E0D0A0A00E7
:101EC0004279746520307825632563206F6E204C3D
:101ED0004544730D0A0A00456E7465722068657882
:101EE00061646563696D616C2076616C75652066FF
:101EF000726F6D2030302D46463A0D0A0A000D0AE9
:101F00000A00456E746572206272696768746E6556
:101F100073732076616C75652066726F6D2030304A
:101F2000302D3235353A0D0A0A0025630D0A0A00B4
:101F300043686F6F736520636F6C6F723A0D0A0AA6
:101F400052202D205265640D0A47202D20477265CE
:101F5000656E0D0A42202D20426C75650D0A0A003F
:101F60002564204C75780D0A0A00417661696C6120
:101F7000626C6520636F6D6D616E64733A0D0A0A61
:101F80004C202D20446973706C61792063757272E6
:101F9000656E7420696C6C756D696E616E63652029
:101FA00076616C756520696E204C75780D0A42204B
:101FB0002D20456E746572206E657720636F6C6F9F
:101FC0007220616E6420696E74656E736974792025
:101FD000666F7220426C696E6B4D204C45440D0A51
:101FE00044202D20456E74657220627974652076D8
:101FF000616C756520746F20626520646973706C14
:1020000061796564206F6E20506F72742042204C9D
:102010004544730D0A4E202D205475726E206E6F4C
:102020007465206F6E0D0A4F202D205475726E203E
:102030006E6F7465206F66660D0A53202D20456E05
:1020400074657220737472696E6720746F206265A4
:1020500020646973706C61796564206F6E204C43F5
:10206000440D0A54202D20446973706C61792063FB
:10207000757272656E742074656D706572617475C9
:1020800072652076616C756520696E206465677283
:102090006565732043656C736975730D0A0A005793
:1020A000616974696E6720666F72206120636F6D6D
:1020B0006D616E642E2E2E0D0A0A0045434E532D7F
:1020C00034323420496E204465707468204C61625B
:1020D0002023342C20627920416E647920526F676E
:0A20E00067656E6275636B0D0A0000
:0620EA00FF0EE3CFEAFF48
:1020F000E552FF0EE3CFE9FFE552E66AE66AD9CF83
:10210000E6FFDACFE6FFFC0EE124D96EFF0EE220F7
:10211000DA6EE66AE66AE66A200EEF5C06E0090E11
:10212000EF5C03E0EF6603D03FD0EE50F5D72D0E05
:10213000EF5C03E1FF0EE32A03D02B0EEF5C01E11D
:10214000EE502F0EEF6424D03A0EEF6021D0D890DD
:10215000F90EE336FA0EE336FD0EDECFE3FFFE0E98
:10216000DDCFE3FFD890F90EE336FA0EE336D890D0
:10217000F90EE336FA0EE336FD0EE350DE26FE0ED0
:10218000E350DD22300EEE5CDE26000EDD22D9D7D4
:10219000FF0EE3CFE8FFE85207E0F90EE31EE32A63
:1021A000FA0ED8B4E306E31EE552E552E552FF0EFF
:1021B000E3CFDAFFE552FF0EE3CFD9FFE552E1CFDF
:1021C000E9FFE2CFEAFFED52ED52EECFF3FFEFCFA2
:0421D000F4FF120006
:0C21D400060EF66E000EF76E000EF86EA0
:1021E0000E010900F550266F0900F550276F03E135
:1021F000266701D03DD00900F550216F0900F55048
:10220000226F0900F550236F09000900F550E96EAF
:102210000900F550EA6E090009000900F550246F25
:102220000900F550256F09000900F6CF28FEF7CF09
:1022300029FEF8CF2AFE21CEF6FF22CEF7FF23CECD
:10224000F8FF0E01245302E1255307E00900F55081
:10225000EE6E2407F8E22507F9D728CEF6FF29CE3F
:10226000F7FF2ACEF8FF0E012607000E275BBFD727
:0222700012005A
:0E227200D9CFE6FFDACFE6FFE1CFD9FFE2CF0A
:10228000DAFFE652E652E652E652D950F90F146EE2
:10229000FF0EDA20156E14C0DEFFDD6EDECFE6FF26
:1022A000DDCFE6FFF90EDBCFE6FFFA0EDBCFE6FF70
:1022B000FB0EDBCFE6FFFC0EDBCFE6FFFD0EDBCF38
:1022C000E6FF20EC00F0146E070EE15C02E2E16A2A
:1022D000E552E16E1450020EF3CFDBFF030EF4CF94
:1022E000DBFF020EDBCF14F0030EDBCF15F014C0C2
:1022F000F3FF15C0F4FF040EE15C02E2E16AE5526F
:0E230000E16EE552E5CFDAFFE7CFD9FF12001C
:02230E00D9CF25
:10231000E6FFDACFE6FFE1CFD9FFE2CFDAFFFB0E2F
:10232000DBCF14F0FC0EDBCF15F00001800E15148E
:102330001AE1FB0EDBCFE9FFFC0EDBCFEAFFEECFAD
:10234000F3FFEDCFF4FFEE2A000EEF22F3CFE9FF0B
:10235000F4CFEAFFFD0EDBCFEFFFEF50156AF36E0F
:1023600015C0F4FF10D0FB0EDB50FE0806E1FD0E99
:10237000DBCFE6FFC8EC13F005D0FD0EDBCFE6FFA8
:1023800008EC14F0E552E552E5CFDAFFE7CFD9FFCC
:02239000120039
:0E239200D9CFE6FFDACFE6FFE1CFD9FFE2CFE9
:1023A000DAFFAC6AAB6AFD0EDBB0AC88DBA202D010
:1023B000AC8CAB8CDBB4AC8EDBA602D0AB8801D08E
:1023C000AB8ADBB8AC84DBBAAB86DBAC02D09D8ACF
:1023D00001D09D9ADBAE02D09D8801D09D98FB0E66
:1023E000DB50AF6EFC0EDBCF15F015C014F0156A94
:1023F00014507D6EAC8AAB8EE552E5CFDAFFE7CFA5
:04240000D9FF1200EE
:0C240400D9CFE6FFDACFE6FFE1CFD9FF29
:10241000E2CFDAFFFD0EDB50C96EC6AE02D0FF0E72
:1024200024D00F0EC61408080FE00F0EC6140B08B8
:102430000BE0C6889EA6FED7C750040B03E1C75029
:10244000010B10E0000E11D00F0EC614080804E0B6
:102450000F0EC6140B0809E1C7B0FED7FAEC13F053
:10246000C5AC02D0FE0E01D0000EE552E5CFDAFF7A
:06247000E7CFD9FF1200C6
:0A24760006500B02F3CF02F0F4CF82
:1024800003F00C02F3500326000EF420046E0650F5
:102490000D02F3500426000EF420056E06500E02C5
:1024A000F350052607500B02F3500326F450042284
:1024B000000E052207500C02F3500426F4500522AA
:1024C00007500D02F350052608500B02F350042666
:1024D000F450052208500C02F350052609500B0257
:0624E000F3500526120076
:0A24E600FE0EE3CFE9FFFF0EE3CF87
:1024F000EAFFF36AF46AEE5203E0F34AF42AFBD7E8
:102500001200FF0EE3CFF8FFE552FF0EE3CFF7FF17
:10251000E552FF0EE3CFF6FFE552E66AE66AE66AA9
:102520000900F55209E0FD0EE32A05E1FE0EE32A5B
:1025300002E1FF0EE32AF4D7FD0EE3CF07F0FE0E13
:0C254000E3CF08F0FF0EE3CF09F012001B
:04254C00D9CFE6FFFE
:10255000DACFE6FFE1CFD9FFE2CFDAFFACA2FED7B8
:10256000FB0EDBCFF6FFFC0EDBCFF7FFFD0EDBCF64
:10257000F8FF0800F550E66E81EC13F0E552D950F3
:10258000FB0FE96EFF0EDA20EA6EEFCFF6FFEE2AC0
:10259000EFCFF7FF000EEE22EFCFF8FFEE2208009C
:1025A000F550DCE1E552E5CFDAFFE7CFD9FF1200C5
:1025B000D9CFE6FFDACFE6FFE1CFD9FFE2CFDAFFEE
:1025C000C26AC16AC06AFC0EDB507C0BC26EFB0E95
:1025D000DB50C16EFD0EDB50040DF350380B156E51
:1025E000FD0EDB380F0B070B146EFD0EDB50800B5E
:1025F00014101510C06EFC0EDBAE03D09E9C9D8C9B
:10260000F28CC280E552E5CFDAFFE7CFD9FF1200A6
:10261000056A046A036A026A200EE76ED8900636DD
:1026200007360836093602360336043605360B50AF
:10263000025C0C5003580D5004580E50055809E325
:102640000B50025E0C50035A0D50045A0E50055A9E
:08265000062AE72EE4D7120070
:08265800D9CFE6FFDACFE6FF5F
:10266000E1CFD9FFE2CFDAFFE652F20E0E013217C8
:10267000ABAC03D03291ABB03281ABB43285ABB2EC
:102680003287AE50DF6EDF50E552E552E5CFDAFF1C
:06269000E7CFD9FF1200A4
:0A269600D9CFE6FFDACFE6FFE1CF6F
:1026A000D9FFE2CFDAFFFD0EDB50FB0BCA6ECC6A1E
:1026B0009E92FD0EDBAE02D09D8201D09D92CA8417
:0C26C000E552E5CFDAFFE7CFD9FF1200AA
:0426CC00D9CFE6FF7D
:1026D000DACFE6FFE1CFD9FFE2CFDAFF3F0EC71630
:1026E000C66AC56AFD0EDB50C612FC0EDB50C7126F
:1026F00094869488C68AE552E5CFDAFFE7CFD9FF02
:022700001200C5
:0E270200D9CFE6FFDACFE6FFE1CFD9FFE2CF75
:10271000DAFFACAC04D0AC900E0132B3AC80FD0E4D
:10272000DB50AD6EE552E5CFDAFFE7CFD9FF1200FF
:10273000F36AF46AFF0EE124E96EFF0EE220EA6E0E
:10274000ED6607D02F0EEF6404D03A0EEF6001D093
:04275000F32A120056
:0C275400410EF36E00EE00F00E0E01D8F6
:102760001200EA6002D0EE6AFCD7F350E960120072
:04277000EE6AFCD73A
:0C2774001DEE00F02DEE00F0F86A019C54
:10278000EAEC10F009EC14F01BEC06F0FBD7120099
:10279000FF0EE350ACBA04D0AF6AAB8EAC8A949C07
:0C27A000ACA2FED7AD6EF36EF46A12001E
:0427AC00056A080EA4
:1027B000E76ED890093605360E50055C02E3056ECB
:0827C000092AE72EF7D71200E9
:0827C8000F0EC614080804E01E
:1027D0000F0EC6140B0801E1C586C7A0FED7C9506D
:0227E0001200E5
:0E27E200303132333435363738396162636452
:0327F0006566001B
:0C27F4001F0EC514FDE1C750040BFAE1F4
:022800001200C4
:0A280200C250020B01E0010E1200AB
:04280C00C282120072
:022810001200B4
:022812001200B2
:0728140000000000000001BC
:020000040030CA
:0100000015EA
:0100010008F6
:010003007C80
:00000001FF
